:100000000C943E000C9453000C9453000C94530039
:100010000C9453000C9453000C9453000C94530014
:100020000C9453000C9453000C9453000C94530004
:100030000C9453000C9453000C9453000C945300F4
:100040000C9453000C9453000C9453000C945300E4
:100050000C9453000C9453000C9453000C945300D4
:100060000C9453000C9453000C9453000C945300C4
:100070000C9453000C9453000C94530011241FBE95
:10008000CFEFD8E0DEBFCDBF11E0A0E0B1E0ECEAF9
:10009000F3E002C005900D92A235B107D9F70E9496
:1000A000CF010C94D4010C9400001F9321C0108147
:1000B0008C91823619F0843661F402C083B101C09C
:1000C00089B190E002C0959587951A95E2F780FF77
:1000D00023C02F5F3F4F119632962330310539F7F9
:1000E000AB014F5F5F4F4330510514F4BA0104C0B8
:1000F00060E070E040E050E0CB01880F991F860F70
:10010000971FDC01A85BBE4FFC01EE0FFF1FEA5CEE
:10011000FE4F20E030E0CBCFBA01C9011F91089516
:100120006F927F928F929F92AF92BF92CF92DF9207
:10013000EF92FF920F931F93CF93DF934C0140E018
:1001400050E0A1E0AA2EB12CF0E96F2EF1E07F2E55
:1001500051C08CE08816910429F4F701C080F801A1
:10016000D08006C0FBE08F16910411F4C880DC90AB
:1001700082E6C81689F0E3E6CE16C9F0F1E6CF169E
:1001800001F522B1C5010D2C02C0880F991F0A94F8
:10019000E2F7282B22B915C025B1C5010D2C02C0EC
:1001A000880F991F0A94E2F7282B25B90AC028B1B5
:1001B000C5010D2C02C0880F991F0A94E2F7282B65
:1001C00028B980E197E2F3013197F1F70197D9F768
:1001D0006F5F7F4F0894E11CF11C0E5F1F4F21964B
:1001E00012966330710509F0B4CF4F5F5F4F433013
:1001F0005105D1F0CA01880F991F840F951F7DE228
:10020000E72E71E0F72EE80EF91E9C01220F331F36
:100210008901055E1E4FEC01CE5EDE4FD901A05074
:10022000BF4F60E070E095CFDF91CF911F910F91AC
:10023000FF90EF90DF90CF90BF90AF909F908F9006
:100240007F906F9008959C016C30710569F06D305E
:10025000710529F06B30710509F05BC00AC0E6E357
:10026000F1E040E050E03FC0EBE1F1E040E050E081
:1002700022C0E0E0F1E040E050E007C04F5F5F4F98
:1002800036964330510509F444C08081918182172C
:10029000930771F1828193818217930789F1848199
:1002A00095818217930751F715C04F5F5F4F3696C0
:1002B0004330510571F18081918182179307C1F01C
:1002C0008281938182179307D9F084819581821767
:1002D000930759F722E030E021C04F5F5F4F369619
:1002E00043305105B1F0808191818217930719F451
:1002F00020E030E013C0828193818217930719F4C4
:1003000021E030E00BC0848195818217930729F7A3
:10031000E1CF20E030E0C901AC019C01BA01C90184
:1003200008955098519853985498559856985798BE
:1003300023982498589A599A5B9A5C9A5D9A5E9A87
:100340005F9A2B9A2C9A399A3A9A3B9A3C9A3D9A00
:100350003E9A3F9A089A099A0A9A0B9A0C9A0D9A11
:100360000E9A0F9A209A219A229A4198429843987D
:100370004498459846984798109811981298139861
:100380001498159816981798289829982A980895D7
:100390000E9491018CE090E00E94900008950E94DC
:0C03A000C80180E090E00895F894FFCFC1
:1003AC00040006000700020000000200000002002A
:1003BC0004006363616262636161610500070006AA
:1003CC0000010001000300010003000500636361EC
:1003DC0062636361616103000100060004000400B4
:1003EC0005000000030007006264646264646464D6
:0203FC0064009B
:040000030000039066
:00000001FF
