:100000000C943E000C9453000C9453000C94530039
:100010000C9453000C9453000C9453000C94530014
:100020000C9453000C9453000C9453000C94530004
:100030000C9453000C9453000C9453000C945300F4
:100040000C9453000C9453000C9453000C945300E4
:100050000C9453000C9453000C9453000C945300D4
:100060000C9453000C9453000C9453000C945300C4
:100070000C9453000C9453000C94530011241FBE95
:10008000CFEFD8E0DEBFCDBF11E0A0E0B1E0E0EF00
:10009000F2E002C005900D92A235B107D9F70E9497
:1000A00071010C9476010C9400001F9321C0108103
:1000B0008C91823619F0843661F402C083B101C09C
:1000C00089B190E002C0959587951A95E2F780FF77
:1000D00023C02F5F3F4F119632962330310539F7F9
:1000E000AB014F5F5F4F4330510514F4BA0104C0B8
:1000F00060E070E040E050E0CB01880F991F860F70
:10010000971FDC01A85BBE4FFC01EE0FFF1FEA5CEE
:10011000FE4F20E030E0CBCFBA01C9011F91089516
:100120009C016C30710569F06D30710529F06B3000
:10013000710509F05BC00AC0E6E3F1E040E050E081
:100140003FC0EBE1F1E040E050E022C0E0E0F1E050
:1001500040E050E007C04F5F5F4F36964330510597
:1001600009F444C0808191818217930771F18281E3
:1001700093818217930789F1848195818217930770
:1001800051F715C04F5F5F4F36964330510571F1FF
:100190008081918182179307C1F0828193818217B8
:1001A0009307D9F0848195818217930759F722E04C
:1001B00030E021C04F5F5F4F369643305105B1F0BC
:1001C000808191818217930719F420E030E013C0F9
:1001D000828193818217930719F421E030E00BC0EC
:1001E000848195818217930729F7E1CF20E030E0E1
:1001F000C901AC019C01BA01C901089550985198F8
:100200005398549855985698579823982498589AE4
:10021000599A5B9A5C9A5D9A5E9A5F9A2B9A2C9A8D
:10022000399A3A9A3B9A3C9A3D9A3E9A3F9A089A52
:10023000099A0A9A0B9A0C9A0D9A0E9A0F9A209A7A
:10024000219A229A41984298439844984598469812
:100250004798109811981298139814981598169812
:100260001798289829982A980895CF93DF930E9489
:10027000FE00C1E0D0E00E945500DB01AA0FBB1FC9
:10028000A60FB71FA80FB91FFD01EE0FFF1FE55EF8
:10029000FE4FE081A35DBE4FAC91A23671F0A33654
:1002A000B1F0A13641F722B1CE0102C0880F991FEB
:1002B000EA95E2F7282B22B9DECF25B1CE0102C0A4
:1002C000880F991FEA95E2F7282B25B9D4CF28B1DA
:1002D000CE0102C0880F991FEA95E2F7282B28B9B2
:1002E000CACF0E94350180E090E00895F894FFCFD6
:1002F00004000600070002000000020000000200E7
:100300000400636361626263616161050007000666
:1003100000010001000300010003000500636361A8
:100320006263636161610300010006000400040070
:100330000500000003000700626464626464646492
:02034000640057
:040000030000026A8D
:00000001FF
