:100000000C943E000C9453000C9453000C94530039
:100010000C9453000C9453000C9453000C94530014
:100020000C9453000C9453000C9453000C94530004
:100030000C9453000C9453000C9453000C945300F4
:100040000C9453000C9453000C9453000C945300E4
:100050000C9453000C9453000C9453000C945300D4
:100060000C9453000C9453000C9453000C945300C4
:100070000C9453000C9453000C94530011241FBE95
:10008000CFEFD8E0DEBFCDBF11E0A0E0B1E0EEEEF3
:10009000F2E102C005900D92A235B107D9F70E9496
:1000A00070090C9475090C9400008F929F92AF9286
:1000B000BF92CF92DF92EF92FF920F931F93CF9355
:1000C000DF9360E070E041E050E0E2C0F601908133
:1000D000F50180818336A1F0843611F1823679F5FD
:1000E00034B1FA0102C0EE0FFF1F9A95E2F7CF017B
:1000F0002E2F2095232324B925B1822B85B91FC02B
:1001000037B1FA0102C0EE0FFF1F9A95E2F7CF0157
:100110002E2F2095232327B928B1822B88B90FC011
:100120003AB1FA0102C0EE0FFF1F9A95E2F7CF0134
:100130002E2F209523232AB92BB1822B8BB99C918A
:1001400088818236C9F0833624F4813609F03DC0B7
:1001500005C08336F9F08436C1F52AC081B19A0111
:1001600002C0220F331F9A95E2F7822B81B982B128
:100170002095282322B929C084B19A0102C0220FF8
:10018000331F9A95E2F7822B84B985B120952823F5
:1001900025B91BC087B19A0102C0220F331F9A955F
:1001A000E2F7822B87B988B12095282328B90DC0A2
:1001B0008AB19A0102C0220F331F9A95E2F7822B6F
:1001C0008AB98BB1209528232BB9F8019081F701CA
:1001D00080818236C9F0833624F4813609F03DC02F
:1001E00005C08336F9F08436C1F52AC081B19A0181
:1001F00002C0220F331F9A95E2F7822B81B982B198
:100200002095282322B929C084B19A0102C0220F67
:10021000331F9A95E2F7822B84B985B12095282364
:1002200025B91BC087B19A0102C0220F331F9A95CE
:10023000E2F7822B87B988B12095282328B90DC011
:100240008AB19A0102C0220F331F9A95E2F7822BDE
:100250008AB98BB1209528232BB90894811C911C55
:100260000894A11CB11C82E090E0C80ED91E08942D
:10027000E11CF11C0E5F1F4F2196129693E0891628
:10028000910409F023CF6F5F7F4F6330710531F127
:10029000CB01880F991F860F971FB8E4AB2EB1E0F2
:1002A000BB2EA80EB91E9C01220F331FF6E3CF2EE2
:1002B000F1E0DF2EC20ED31EE2E1EE2EE1E0FE2ED3
:1002C000E80EF91E890100501F4FEC01C35DDE4F9F
:1002D000D901A55EBE4F88249924F8CEDF91CF9135
:1002E0001F910F91FF90EF90DF90CF90BF90AF9054
:1002F0009F908F9008951F9324C010818C91833616
:1003000031F0843631F0823669F483B103C086B1AE
:1003100001C089B190E002C0959587951A95E2F7E2
:1003200080FF23C02F5F3F4F119632962330310557
:1003300021F7AB014F5F5F4F4330510514F4BA0111
:1003400004C060E070E040E050E0CB01880F991FEE
:10035000860F971FDC01A85BBE4FFC01EE0FFF1F4D
:10036000EA5CFE4F20E030E0C8CFBA01C9011F911E
:1003700008956F927F928F929F92AF92BF92CF9289
:10038000DF92EF92FF920F931F93CF93DF934C0175
:1003900040E050E0A1E0AA2EB12CF0E96F2EF1E090
:1003A0007F2E51C08CE08816910429F4F701C0809B
:1003B000F801D08006C0FBE08F16910411F4C880CC
:1003C000DC9082E6C81689F0E3E6CE16C9F0F1E6C5
:1003D000CF1601F522B1C5010D2C02C0880F991F5F
:1003E0000A94E2F7282B22B915C025B1C5010D2CBE
:1003F00002C0880F991F0A94E2F7282B25B90AC07A
:1004000028B1C5010D2C02C0880F991F0A94E2F78C
:10041000282B28B988EE93E0F3013197F1F7019783
:10042000D9F76F5F7F4F0894E11CF11C0E5F1F4FDF
:10043000219612966330710509F0B4CF4F5F5F4F7C
:1004400043305105D1F0CA01880F991F840F951FC1
:100450007DE2E72E71E0F72EE80EF91E9C01220FD7
:10046000331F8901055E1E4FEC01CE5EDE4FD901C0
:10047000A050BF4F60E070E095CF88E893E120E99D
:1004800031E0F9013197F1F70197D9F70E94550052
:10049000DF91CF911F910F91FF90EF90DF90CF9060
:1004A000BF90AF909F908F907F906F900895A0E045
:1004B000B0E09A01FA01EE0FFF1FE20FF31FEE0FFB
:1004C000FF1FE80FF91FCB01880F991FE80FF91FD5
:1004D00080819181C69711F4A1E0B0E0CD0108952B
:1004E000CF93DF93EC01DC0160E070E025C0FD01FB
:1004F000E80FF91F0190F081E02DE731F10519F4C3
:100500002F5F3F4F04C03B9711F44F5F5F4F029640
:100510008630910561F72330310509F48FC04330EF
:10052000510509F48BC06F5F7F4F169663307105DC
:1005300019F4A0E0B0E02CC040E050E020E030E052
:1005400080E090E0D4CF808191818731910519F4CA
:100550002F5F3F4F04C00B9711F46F5F7F4F4F5FCA
:100560005F4F36964330510571F72330310509F45A
:1005700065C06330710509F461C01196A330B105FF
:1005800039F4A0E0B0E060E070E040E050E027C067
:10059000FD01EE0FFF1FEC0FFD1F40E050E060E09B
:1005A00070E020E030E0CFCFC901840F951F0297A3
:1005B00059F4808191818731910519F46F5F7F4FE4
:1005C00003C00B9709F411962F5F3F4F36962330E7
:1005D000310551F74F5F5F4F4330510541F0FA014C
:1005E000EE0FFF1FEC0FFD1F20E030E0DDCF63308A
:1005F000710521F1139711F140E050E020E030E067
:1006000080E090E0FE01E80FF91F0190F081E02DFD
:10061000E731F10519F42F5F3F4F04C03B9711F408
:100620004F5F5F4F08968831910561F723303105A0
:1006300029F020E030E04330510511F421E030E0B2
:10064000C901DF91CF9108950F931F93CF93DF934B
:100650008B01EA0119821882BC0140E050E02BC0F6
:100660008D919C911197C697C9F4E881F981EE0F9D
:10067000FF1FEE0FFF1FE00FF11F51834083E88142
:10068000F981EE0FFF1FEE0FFF1FE00FF11F338305
:100690002283888199810196998388832F5F3F4FB8
:1006A000129623303105E1F64F5F5F4F6A5F7F4F4F
:1006B0004330510521F0DB0120E030E0D1CFDF9164
:1006C000CF911F910F910895FC0120E030E040E0B0
:1006D00050E008C02F5F3F4F4F5F5F4F369643306B
:1006E000510589F080819181C69711F42F5F3F4FAA
:1006F00082819381C69711F42F5F3F4F848195814A
:10070000C69751F7E7CFC90108954330510519F451
:100710002FE037E20BC06230710531F4411551050D
:1007200039F428E13CEF02C020E030E0C90108952F
:1007300041305105C9F724E630E0F8CFEF92FF923F
:100740000F931F93CF93DF938C01EC0142E1E42ED2
:10075000F12CE80EF91E22C0FE01E80FF91F0190EE
:10076000F081E02DE731F10519F44F5F5F4F04C0D0
:100770003B9711F46F5F7F4F02968630910561F7CA
:10078000C8010E9485038F50974209F484C02696C1
:10079000CE15DF0519F4C0E0D0E02BC060E070E0BA
:1007A00040E050E080E090E0D7CF808191818731B8
:1007B000910519F44F5F5F4F04C00B9711F46F5F01
:1007C0007F4F2F5F3F4F36962330310571F7C801B9
:1007D0000E9485038F50974209F45DC02196C33073
:1007E000D10539F460E070E040E050E0A0E0B0E016
:1007F00027C0FE01EE0FFF1FE00FF11F20E030E0E9
:1008000060E070E040E050E0D0CFC9018A0F9B1F4C
:10081000029761F4808191818731910519F44F5FCE
:100820005F4F04C00B9711F46F5F7F4F2F5F3F4FF7
:1008300036962330310549F71196A330B10541F0C2
:10084000FD01EE0FFF1FE00FF11F20E030E0DDCFD4
:10085000C8010E9485038F509742E9F060E070E084
:1008600040E050E080E090E0F801E80FF91F0190CF
:10087000F081E02DE731F10519F44F5F5F4F04C0BF
:100880003B9711F46F5F7F4F08968831910561F7B0
:10089000C8010E9485038FE097E2DF91CF911F91FD
:1008A0000F91FF90EF9008959B01452B31F042305E
:1008B000510519F020E030E00DC0672B49F080E0D1
:1008C00090E02230310511F481E090E09C0102C0FB
:1008D00021E030E0C901089580E090E00895AF92F2
:1008E000BF92CF92DF92EF92FF920F931F93DF930D
:1008F000CF93CDB7DEB728970FB6F894DEBF0FBE03
:10090000CDBF8C0180E090E060E070E05E01089473
:10091000A11CB11C2CC02D913C9111972B3031059D
:10092000A1F4FC01EE0FFF1FEE0FFF1FEA0DFB1DF0
:1009300071836083FC01EE0FFF1FEE0FFF1FEA0DB6
:10094000FB1D53834283019605C02731310511F405
:100950006A017B014F5F5F4F129643305105D9F614
:100960006F5F7F4F0A5F1F4F6330710521F0D80121
:1009700040E050E0D0CF29813A814F8158856D8188
:100980007E812E153F0519F04C155D0509F49B017C
:10099000B901CA0128960FB6F894DEBF0FBECDBFCD
:1009A000CF91DF911F910F91FF90EF90DF90CF904B
:1009B000BF90AF9008952F923F924F925F926F92A7
:1009C0007F928F929F92AF92BF92CF92DF92EF92DF
:1009D000FF920F931F93DF93CF93CDB7DEB7AC9702
:1009E0000FB6F894DEBF0FBECDBF9AA789A79EA30E
:1009F0008DA3AA24BB246624772488249924CC249C
:100A0000DD244424552418A61FA27DC0FA0180814C
:100A100091818731910529F411960894A11CB11C8C
:100A200026C08B309105F9F46F5F7F4F0894A11CAD
:100A3000B11CF301EE0FFF1FEE0FFF1F81E090E0EE
:100A40008C0F9D1FE80FF91F33832283F301EE0FF4
:100A5000FF1FEE0FFF1FE80FF91F9182808208949D
:100A6000611C711C04C0C69711F4890174012F5FC9
:100A70003F4F4E5F5F4F2330310541F6A230B10545
:100A800021F46115710509F4A8C16230710521F4E2
:100A9000AB2B09F4BDC11CC06115710561F4119740
:100AA000B9F4C114D104A1F40BA71CA7170181E06C
:100AB000482E512C1AC06130710551F4AB2B41F412
:100AC000CD2809F0A8C14114510409F4A8C103C0FC
:100AD000C114D10461F44114510439F4EFA1F8A513
:100AE000EF2B19F40BA71CA71701CC24DD240894C5
:100AF000811C911C8DA19EA106969EA38DA393E0BF
:100B00008916910449F04DA15EA120E030E060E03B
:100B100070E0A0E0B0E07ACFE1E0AE16B10451F4AD
:100B2000E9A5FAA580859185C697A1F5B1E0EB2EE0
:100B3000F12C10C0F3E0AF16B10461F589A59AA5B8
:100B4000BE016F5F7F4FA3010E946C04892B29F0C7
:100B5000EE24FF2401E010E040C189A59AA50E947F
:100B60006F049B01AC01FB01EE0FFF1FE60FF71FA7
:100B7000EE0FFF1F89A59AA5E80FF91FCA01880F7C
:100B8000991FE80FF91F80819181C69719F47901A7
:100B90008A0123C1A0E0B0E05DC0808191818731EE
:100BA000910519F46F5F7F4F0AC08B30910519F4DE
:100BB0002F5F3F4F04C0C69711F48D017A014F5F3C
:100BC0005F4F36964330510541F76230710521F48D
:100BD0002115310509F401C12230310521F4672BBB
:100BE00009F425C11DC02115310569F46130710575
:100BF000B9F4C114D104A1F40BA71CA7170121E07B
:100C0000422E512C1AC02130310551F4672B41F48A
:100C1000CD2809F00FC14114510409F40FC103C0DC
:100C2000C114D10461F44114510439F4EFA1F8A5C1
:100C3000EF2B19F40BA71CA71701CC24DD24119668
:100C4000A330B10539F460E070E0A0E0B0E040E02E
:100C500050E02FC0FD01EE0FFF1F89A59AA5E80FF8
:100C6000F91F40E050E020E030E060E070E095CF18
:100C7000C901840F951F029789F480819181873182
:100C8000910511F411960AC08B30910519F46F5F2C
:100C90007F4F04C0C69711F48A0179012F5F3F4F3F
:100CA00036962330310521F74F5F5F4F43305105B2
:100CB00051F0FA01EE0FFF1F89A59AA5E80FF91F61
:100CC00020E030E0D5CFA230B10521F461157105E7
:100CD00009F483C06230710521F4AB2B09F4B6C06E
:100CE0001CC06115710561F41197B9F4C114D104E8
:100CF000A1F40BA71CA7170171E0472E512C1AC0B5
:100D00006130710551F4AB2B41F4CD2809F0A1C03D
:100D10004114510409F4A1C003C0C114D10461F409
:100D20004114510439F4EFA1F8A5EF2B19F40BA7E6
:100D30001CA71701CC24DD24E9A5FAA520E030E0AA
:100D400040E050E060E070E0808191818731910562
:100D500019F46F5F7F4F0AC08B30910519F44F5F14
:100D60005F4F04C0C69711F4890179012F5F3F4F8F
:100D700038962330310541F76230710519F4411579
:100D8000510559F14230510519F4672BF1F015C0A6
:100D90004115510539F46130710579F4C114D1045C
:100DA00061F413C04130510541F4672B31F4CD2873
:100DB00079F44114510449F002C0CD2849F4452882
:100DC00039F48FA198A5892B19F40BA71CA717013B
:100DD00071012BA53CA5C9018C01B701C801AC96D6
:100DE0000FB6F894DEBF0FBECDBFCF91DF911F913C
:100DF0000F91FF90EF90DF90CF90BF90AF909F90BA
:100E00008F907F906F905F904F903F902F900895BC
:100E10000BA71CA7170161E0C62ED12C68CE0BA72B
:100E20001CA71701E1E0F0E0F8A7EFA35ECE0BA747
:100E30001CA7170151E0C52ED12C01CF0BA71CA771
:100E4000170181E090E098A78FA3F7CE0BA71CA70E
:100E5000170141E0C42ED12C6FCF0BA71CA717019F
:100E6000E1E0F0E0F8A7EFA365CFAF92BF92CF9299
:100E7000DF92EF92FF920F931F93DF93CF93CDB743
:100E8000DEB762970FB6F894DEBF0FBECDBFFE018E
:100E9000319686E390E09E012D5E3F4F91838083E3
:100EA00093838283958384833696E217F307B1F7A1
:100EB0007E010894E11CF11C01E010E0ABE0AA2ED9
:100EC000B12CF7E1CF2ED12C0E947B01AC01DB01CC
:100ED000AA0FBB1FA60FB71FFD01EE0FFF1FEE0DE0
:100EE000FF1D880F991FE80FF91F80819181C69718
:100EF00059F7A40FB51FFD01EE0FFF1FE55EFE4F72
:100F0000E081A35DBE4FAC91A23671F0A336B1F083
:100F1000A136E9F422B1C80102C0880F991FEA95F1
:100F2000E2F7282B22B913C025B1C80102C0880FEF
:100F3000991FEA95E2F7282B25B909C028B1C80105
:100F400002C0880F991FEA95E2F7282B28B9FB0108
:100F5000EE0FFF1FE60FF71FE40FF51FEE0FFF1F49
:100F6000EE0DFF1DB182A082C7010E947002892B85
:100F700009F056C00E947B01AC01DB01AA0FBB1F28
:100F8000A60FB71FFD01EE0FFF1FEE0DFF1D880F0F
:100F9000991FE80FF91F80819181C69759F7A40F17
:100FA000B51FFD01EE0FFF1FE050FF4FE081AE5E69
:100FB000BE4FAC91A23671F0A336B1F0A136E9F480
:100FC00022B1C80102C0880F991FEA95E2F7282BC9
:100FD00022B913C025B1C80102C0880F991FEA9534
:100FE000E2F7282B25B909C028B1C80102C0880F33
:100FF000991FEA95E2F7282B28B9FB01EE0FFF1F96
:10100000E60FF71FE40FF51FEE0FFF1FEE0DFF1D9C
:10101000D182C082C7010E947002892B09F454CF8B
:1010200062960FB6F894DEBF0FBECDBFCF91DF91B1
:101030001F910F91FF90EF90DF90CF90BF90AF90F6
:1010400008958F929F92AF92BF92CF92DF92EF92CC
:10105000FF920F931F93DF93CF93CDB7DEB76297C5
:101060000FB6F894DEBF0FBECDBFFE01319686E30A
:1010700090E09E012D5E3F4F918380839383828316
:10108000958384833696E217F307B1F77E010894BF
:10109000E11CF11C01E010E0BBE08B2E912CA0E9DB
:1010A000AA2EA1E0BA2EF7E1CF2ED12C0E947B010F
:1010B000AC01DB01AA0FBB1FA60FB71FFD01EE0F8E
:1010C000FF1FEE0DFF1D880F991FE80FF91F80818C
:1010D0009181C69759F7A40FB51FFD01EE0FFF1FB1
:1010E000E55EFE4FE081A35DBE4FAC91A23671F08C
:1010F000A336B1F0A136E9F422B1C80102C0880FCD
:10110000991FEA95E2F7282B22B913C025B1C8012F
:1011100002C0880F991FEA95E2F7282B25B909C06C
:1011200028B1C80102C0880F991FEA95E2F7282B61
:1011300028B9FB01EE0FFF1FE60FF71FE40FF51FA5
:10114000EE0FFF1FEE0DFF1D91828082C7010E94EE
:101150007002892B09F051C088E591E1F5013197C2
:10116000F1F70197D9F7C7010E94DB04AC01DB015D
:10117000AA0FBB1FA60FB71FA80FB91FFD01EE0FC7
:10118000FF1FE050FF4FE081AE5EBE4FAC91A23634
:1011900071F0A336B1F0A136E9F422B1C80102C062
:1011A000880F991FEA95E2F7282B22B913C025B1C1
:1011B000C80102C0880F991FEA95E2F7282B25B9CC
:1011C00009C028B1C80102C0880F991FEA95E2F74B
:1011D000282B28B9FB01EE0FFF1FE60FF71FE40FC6
:1011E000F51FEE0FFF1FEE0DFF1DD182C082C7015C
:1011F0000E947002892B09F459CF62960FB6F894B9
:10120000DEBF0FBECDBFCF91DF911F910F91FF9039
:10121000EF90DF90CF90BF90AF909F908F90089508
:101220000F931F93CF93DF930E9455000E947B0181
:101230008B01EC01892B39F48BE090E00E94B9011D
:101240000E94350748C08230910539F48CE090E067
:101250000E94B9010E9421083EC08BE090E00E94EC
:10126000B9018CE090E00E94B901D801AA0FBB1F20
:10127000A00FB11FAC0FBD1FFD01EE0FFF1FE55EFC
:10128000FE4FE081A35DBE4FAC91A23679F0A3364C
:10129000C1F0A13601F522B181E090E002C0880FD3
:1012A000991FEA95E2F7282B22B915C025B181E0F4
:1012B00090E002C0880F991FEA95E2F7282B25B924
:1012C0000AC028B181E090E002C0880F991FEA951A
:1012D000E2F7282B28B9DF91CF911F910F91089544
:0E12E0000E94100980E090E00895F894FFCF7E
:1012EE0004000600070002000000020000000200D9
:1012FE000400636361626263616161050007000659
:10130E00000100010003000100030005006363619A
:10131E006263636161610300010006000400040062
:10132E000500000000000700626464626464646388
:02133E00640049
:0400000300001220C7
:00000001FF
