:100000000C943E000C9453000C9453000C94530039
:100010000C9453000C9453000C9453000C94530014
:100020000C9453000C9453000C9453000C94530004
:100030000C9453000C9453000C9453000C945300F4
:100040000C9453000C9453000C9453000C945300E4
:100050000C9453000C9453000C9453000C945300D4
:100060000C9453000C9453000C9453000C945300C4
:100070000C9453000C9453000C94530011241FBE95
:10008000CFEFD8E0DEBFCDBF11E0A0E0B1E0E8E304
:10009000FDE002C005900D92A235B107D9F70E948C
:1000A00095060C949A060C94000050985198389834
:1000B000549855985698579823982498589A599A2E
:1000C000409A5C9A5D9A5E9A5F9A2B9A2C9A399A1A
:1000D0003A9A3B9A3C9A3D9A3E9A3F9A089A099AD4
:1000E0000A9A0B9A0C9A0D9A0E9A0F9A209A219AB4
:1000F000229A419842984398449845984698479840
:100100001098119812981398149815981698179893
:10011000289829982A9808951F9324C010818C91BB
:10012000833631F0843631F0823669F483B103C00E
:1001300086B101C089B190E002C0959587951A9566
:10014000E2F780FF23C02F5F3F4F11963296233096
:10015000310521F7AB014F5F5F4F4330510514F478
:10016000BA0104C060E070E040E050E0CB01880FCD
:10017000991F860F971FDC01A85BBE4FFC01EE0F95
:10018000FF1FEA5CFE4F20E030E0C8CFBA01C90192
:100190001F9108956F927F928F929F92AF92BF921C
:1001A000CF92DF92EF92FF920F931F93CF93DF9343
:1001B0004C0140E050E0A1E0AA2EB12CF0E96F2EF6
:1001C000F1E07F2E51C08CE08816910429F4F701EC
:1001D000C080F801D08006C0FBE08F16910411F4B6
:1001E000C880DC9082E6C81689F0E3E6CE16C9F036
:1001F000F1E6CF1601F522B1C5010D2C02C0880F22
:10020000991F0A94E2F7282B22B915C025B1C50120
:100210000D2C02C0880F991F0A94E2F7282B25B9EC
:100220000AC028B1C5010D2C02C0880F991F0A947D
:10023000E2F7282B28B988EE93E0F3013197F1F724
:100240000197D9F76F5F7F4F0894E11CF11C0E5F97
:100250001F4F219612966330710509F0B4CF4F5F9E
:100260005F4F43305105D1F0CA01880F991F840FA9
:10027000951F7DE2E72E71E0F72EE80EF91E9C0136
:10028000220F331F8901055E1E4FEC01CE5EDE4F4B
:10029000D901A050BF4F60E070E095CF88E893E1AE
:1002A00020E931E0F9013197F1F70197D9F70E9480
:1002B0005500DF91CF911F910F91FF90EF90DF904C
:1002C000CF90BF90AF909F908F907F906F90089548
:1002D000A0E0B0E09A01FA01EE0FFF1FE20FF31F5A
:1002E000EE0FFF1FE80FF91FCB01880F991FE80FD2
:1002F000F91F80819181C69711F4A1E0B0E0CD0192
:100300000895CF93DF93EC01DC0160E070E025C03D
:10031000FD01E80FF91F0190F081E02DE731F105B3
:1003200019F42F5F3F4F04C03B9711F44F5F5F4FAD
:1003300002968630910561F72330310509F48FC0AC
:100340004330510509F48BC06F5F7F4F16966330C1
:10035000710519F4A0E0B0E02CC040E050E020E0CE
:1003600030E080E090E0D4CF8081918187319105A9
:1003700019F42F5F3F4F04C00B9711F46F5F7F4F4D
:100380004F5F5F4F36964330510571F7233031058B
:1003900009F465C06330710509F461C01196A3309A
:1003A000B10539F4A0E0B0E060E070E040E050E07A
:1003B00027C0FD01EE0FFF1FEC0FFD1F40E050E0D6
:1003C00060E070E020E030E0CFCFC901840F951FDE
:1003D000029759F4808191818731910519F46F5FFB
:1003E0007F4F03C00B9709F411962F5F3F4F36964E
:1003F0002330310551F74F5F5F4F4330510541F0D6
:10040000FA01EE0FFF1FEC0FFD1F20E030E0DDCF03
:100410006330710521F1139711F140E050E020E0C5
:1004200030E080E090E0FE01E80FF91F0190F081DC
:10043000E02DE731F10519F42F5F3F4F04C03B97E2
:1004400011F44F5F5F4F08968831910561F72330B3
:10045000310529F020E030E04330510511F421E06E
:1004600030E0C901DF91CF9108952F923F924F92D2
:100470005F926F927F928F929F92AF92BF92CF9234
:10048000DF92EF92FF920F931F93DF93CF9300D0F1
:1004900000D000D0CDB7DEB79A8389833C0160E0FD
:1004A00070E0E0E0F0E0CC24DD24442455246DC06D
:1004B000AB81BC818D919C918731910531F48D8107
:1004C0009E8101969E838D830CC08B30910519F41B
:1004D0004F5F5F4F06C0C69721F4E22E032FF22C28
:1004E000132D2F5F3F4FAB81BC811296BC83AB8332
:1004F00023303105E9F62D813E812230310521F48A
:100500004115510509F48CC14230510531F44D813A
:100510005E81452B09F4A1C120C04115510571F43C
:100520008D819E810197C9F43097B9F48E2C902E5D
:10053000AF2CB12E31E0C32ED12C1BC04130510560
:1005400061F4AD81BE81AB2B41F4EF2B09F089C181
:10055000C114D10409F488C102C0309761F4C114F8
:10056000D10439F44114510421F48E2C902EAF2C77
:10057000B12EE0E0F0E06F5F7F4F26E030E0620EEA
:10058000731E6330710509F471C07C826B8220E0B8
:1005900030E040E050E01E821D821B0189CFAD811A
:1005A000BE818D919C918731910519F46F5F7F4FCA
:1005B0000CC08B30910519F44F5F5F4F06C0C69792
:1005C00021F4E62C072DF22E132F2F5F3F4F8D8144
:1005D0009E8106969E838D832330310501F762301C
:1005E000710521F44115510509F41AC14230510534
:1005F00021F4672B09F440C11DC04115510569F470
:1006000061307105B9F43097A9F48E2C902EAF2C7F
:10061000B12E21E0C22ED12C19C04130510551F428
:10062000672B41F4EF2B09F02BC1C114D10409F45D
:100630002AC102C0309761F4C114D10439F44114C5
:10064000510421F48E2C902EAF2CB12EE0E0F0E07E
:100650000894211C311C93E02916310449F422240A
:10066000332460E070E020E030E03EC022243324F8
:10067000D101AA0FBB1F29813A81A20FB31FBE83EC
:10068000AD8320E030E040E050E060E070E0310118
:1006900086CFCA01820F931F0297B9F4AD81BE8144
:1006A0008D919C918731910519F46F5F7F4F0DC03B
:1006B0008B30910521F40894211C311C06C0C6978B
:1006C00021F4E62C072DF42E152F4F5F5F4F8D81FF
:1006D0009E8106969E838D8343305105D1F62F5F10
:1006E0003F4F2330310569F0D901AA0FBB1F498163
:1006F0005A81A40FB51FBE83AD8340E050E039019D
:10070000C8CF6230710521F42114310409F488C086
:1007100052E02516310421F4672B09F4BCC01EC039
:100720002114310469F461307105C1F43097B1F4DA
:100730008E2C902EAF2CB12E51E0C52ED12C1AC08C
:1007400081E02816310451F4672B41F4EF2B09F0B6
:10075000A6C0C114D10409F4A5C002C0309761F449
:10076000C114D10439F44114510421F48E2C902E7B
:10077000AF2CB12EE0E0F0E069807A8020E030E03C
:1007800040E050E060E070E0D3018D919C918731B2
:10079000910519F46F5F7F4F0CC08B30910519F4F0
:1007A0004F5F5F4F06C0C69721F4E22E032FF22E53
:1007B000132F2F5F3F4F88E090E0680E791E2330A3
:1007C000310511F76230710519F44115510541F1F8
:1007D0004230510519F4672BD9F014C04115510569
:1007E00031F46130710571F4309761F411C041301A
:1007F000510541F4672B31F4EF2B71F4C114D1048E
:1008000039F002C0EF2B41F4CD2831F4452821F412
:100810008E2C902EAF2CB12EFA2C1B2DE82C092DEE
:100820006F2D8E2D902F712F26960FB6F894DEBF68
:100830000FBECDBFCF91DF911F910F91FF90EF9031
:10084000DF90CF90BF90AF909F908F907F906F90F0
:100850005F904F903F902F9008958E2C902EAF2C4C
:10086000B12EE1E0F0E087CE8E2C902EAF2CB12E91
:1008700041E0442E512C7DCE8E2C902EAF2CB12EEB
:10088000E1E0F0E0E5CE8E2C902EAF2CB12E31E0E1
:10089000432E512CDBCE8E2C902EAF2CB12EE1E0CE
:1008A000F0E06ACF8E2C902EAF2CB12E21E0422E9C
:1008B000512C60CFAF92BF92CF92DF92EF92FF9216
:1008C0000F931F93DF93CF93CDB7DEB762970FB629
:1008D000F894DEBF0FBECDBFFE01319686E390E0F7
:1008E0009E012D5E3F4F9183808393838283958306
:1008F00084833696E217F307B1F77E010894E11C72
:10090000F11C01E010E0ABE0AA2EB12CF7E1CF2EF4
:10091000D12C0E948C00AC01DB01AA0FBB1FA60FDB
:10092000B71FFD01EE0FFF1FEE0DFF1D880F991F72
:10093000E80FF91F80819181C69759F7A40FB51F61
:10094000FD01EE0FFF1FE55EFE4FE081A35DBE4F90
:10095000AC91A23671F0A336B1F0A136E9F422B120
:10096000C80102C0880F991FEA95E2F7282B22B927
:1009700013C025B1C80102C0880F991FEA95E2F79C
:10098000282B25B909C028B1C80102C0880F991FBA
:10099000EA95E2F7282B28B9FB01EE0FFF1FE60FBF
:1009A000F71FE40FF51FEE0FFF1FEE0DFF1DB182C5
:1009B000A082C7010E948101892B09F056C00E94C4
:1009C0008C00AC01DB01AA0FBB1FA60FB71FFD01F6
:1009D000EE0FFF1FEE0DFF1D880F991FE80FF91F87
:1009E00080819181C69759F7A40FB51FFD01EE0FC5
:1009F000FF1FE050FF4FE081AE5EBE4FAC91A236CC
:100A000071F0A336B1F0A136E9F422B1C80102C0F9
:100A1000880F991FEA95E2F7282B22B913C025B158
:100A2000C80102C0880F991FEA95E2F7282B25B963
:100A300009C028B1C80102C0880F991FEA95E2F7E2
:100A4000282B28B9FB01EE0FFF1FE60FF71FE40F5D
:100A5000F51FEE0FFF1FEE0DFF1DD182C082C701F3
:100A60000E948101892B09F454CF62960FB6F89445
:100A7000DEBF0FBECDBFCF91DF911F910F91FF90D1
:100A8000EF90DF90CF90BF90AF9008958F929F929C
:100A9000AF92BF92CF92DF92EF92FF920F931F938C
:100AA000DF93CF93CDB7DEB762970FB6F894DEBF72
:100AB0000FBECDBFFE01319686E390E09E012D5E14
:100AC0003F4F91838083938382839583848336967B
:100AD000E217F307B1F77E010894E11CF11C01E075
:100AE00010E0BBE08B2E912CA0E9AA2EA1E0BA2E3B
:100AF000F7E1CF2ED12C0E948C00AC01DB01AA0FB4
:100B0000BB1FA60FB71FFD01EE0FFF1FEE0DFF1D50
:100B1000880F991FE80FF91F80819181C69759F7B7
:100B2000A40FB51FFD01EE0FFF1FE55EFE4FE08134
:100B3000A35DBE4FAC91A23671F0A336B1F0A136E1
:100B4000E9F422B1C80102C0880F991FEA95E2F7C3
:100B5000282B22B913C025B1C80102C0880F991FE4
:100B6000EA95E2F7282B25B909C028B1C80102C0CF
:100B7000880F991FEA95E2F7282B28B9FB01EE0FA1
:100B8000FF1FE60FF71FE40FF51FEE0FFF1FEE0D1F
:100B9000FF1D91828082C7010E948101892B09F08B
:100BA00051C088E591E1F5013197F1F70197D9F747
:100BB000C7010E943502AC01DB01AA0FBB1FA60FC3
:100BC000B71FA80FB91FFD01EE0FFF1FE050FF4F29
:100BD000E081AE5EBE4FAC91A23671F0A336B1F0AB
:100BE000A136E9F422B1C80102C0880F991FEA9525
:100BF000E2F7282B22B913C025B1C80102C0880F23
:100C0000991FEA95E2F7282B25B909C028B1C80138
:100C100002C0880F991FEA95E2F7282B28B9FB013B
:100C2000EE0FFF1FE60FF71FE40FF51FEE0FFF1F7C
:100C3000EE0DFF1DD182C082C7010E948101892B68
:100C400009F459CF62960FB6F894DEBF0FBECDBF40
:100C5000CF91DF911F910F91FF90EF90DF90CF9098
:100C6000BF90AF909F908F9008950F931F93CF9355
:100C7000DF930E9455000E948C008B01EC01892BB0
:100C800039F48BE090E00E94CA000E945A0448C0E8
:100C90008230910539F48CE090E00E94CA000E94F5
:100CA00046053EC08BE090E00E94CA008CE090E0D8
:100CB0000E94CA00D801AA0FBB1FA00FB11FAC0F22
:100CC000BD1FFD01EE0FFF1FE55EFE4FE081A35D3E
:100CD000BE4FAC91A23679F0A336C1F0A13601F532
:100CE00022B181E090E002C0880F991FEA95E2F7F7
:100CF000282B22B915C025B181E090E002C0880FF1
:100D0000991FEA95E2F7282B25B90AC028B181E09E
:100D100090E002C0880F991FEA95E2F7282B28B9C6
:100D2000DF91CF911F910F9108950E94350680E0C9
:080D300090E00895F894FFCF54
:100D38000400060007000200000002000000020094
:100D48000400636361626263616161050007000614
:100D58000001000100030001000300050063636156
:100D6800626363616161030001000600040004001E
:100D78000500000000000700626464626464646344
:020D8800640005
:0400000300000C6A83
:00000001FF
