:100000000C943E000C9453000C9453000C94530039
:100010000C9453000C9453000C9453000C94530014
:100020000C9453000C9453000C9453000C94530004
:100030000C9453000C9453000C9453000C945300F4
:100040000C9453000C9453000C9453000C945300E4
:100050000C9453000C9453000C9453000C945300D4
:100060000C9453000C9453000C9453000C945300C4
:100070000C9453000C9453000C94530011241FBE95
:10008000CFEFD8E0DEBFCDBF11E0A0E0B1E0EAE005
:10009000FEE002C005900D92A235B107D9F70E948B
:1000A000FE060C9403070C94000050985198389861
:1000B000549855985698579823982498589A599A2E
:1000C000409A5C9A5D9A5E9A5F9A2B9A2C9A399A1A
:1000D0003A9A3B9A3C9A3D9A3E9A3F9A089A099AD4
:1000E0000A9A0B9A0C9A0D9A0E9A0F9A209A219AB4
:1000F000229A419842984398449845984698479840
:100100001098119812981398149815981698179893
:10011000289829982A9808951F9324C010818C91BB
:10012000833631F0843631F0823669F483B103C00E
:1001300086B101C089B190E002C0959587951A9566
:10014000E2F780FF23C02F5F3F4F11963296233096
:10015000310521F7AB014F5F5F4F4330510514F478
:10016000BA0104C060E070E040E050E0CB01880FCD
:10017000991F860F971FDC01A85BBE4FFC01EE0F95
:10018000FF1FEA5CFE4F20E030E0C8CFBA01C90192
:100190001F9108956F927F928F929F92AF92BF921C
:1001A000CF92DF92EF92FF920F931F93CF93DF9343
:1001B0004C0140E050E0A1E0AA2EB12CF0E96F2EF6
:1001C000F1E07F2E51C08CE08816910429F4F701EC
:1001D000C080F801D08006C0FBE08F16910411F4B6
:1001E000C880DC9082E6C81689F0E3E6CE16C9F036
:1001F000F1E6CF1601F522B1C5010D2C02C0880F22
:10020000991F0A94E2F7282B22B915C025B1C50120
:100210000D2C02C0880F991F0A94E2F7282B25B9EC
:100220000AC028B1C5010D2C02C0880F991F0A947D
:10023000E2F7282B28B988EE93E0F3013197F1F724
:100240000197D9F76F5F7F4F0894E11CF11C0E5F97
:100250001F4F219612966330710509F0B4CF4F5F9E
:100260005F4F43305105D1F0CA01880F991F840FA9
:10027000951F7DE2E72E71E0F72EE80EF91E9C0136
:10028000220F331F8901055E1E4FEC01CE5EDE4F4B
:10029000D901A050BF4F60E070E095CF88E893E1AE
:1002A00020E931E0F9013197F1F70197D9F70E9480
:1002B0005500DF91CF911F910F91FF90EF90DF904C
:1002C000CF90BF90AF909F908F907F906F90089548
:1002D000A0E0B0E09A01FA01EE0FFF1FE20FF31F5A
:1002E000EE0FFF1FE80FF91FCB01880F991FE80FD2
:1002F000F91F80819181C69711F4A1E0B0E0CD0192
:100300000895CF93DF93EC01DC0160E070E025C03D
:10031000FD01E80FF91F0190F081E02DE731F105B3
:1003200019F42F5F3F4F04C03B9711F44F5F5F4FAD
:1003300002968630910561F72330310509F48FC0AC
:100340004330510509F48BC06F5F7F4F16966330C1
:10035000710519F4A0E0B0E02CC040E050E020E0CE
:1003600030E080E090E0D4CF8081918187319105A9
:1003700019F42F5F3F4F04C00B9711F46F5F7F4F4D
:100380004F5F5F4F36964330510571F7233031058B
:1003900009F465C06330710509F461C01196A3309A
:1003A000B10539F4A0E0B0E060E070E040E050E07A
:1003B00027C0FD01EE0FFF1FEC0FFD1F40E050E0D6
:1003C00060E070E020E030E0CFCFC901840F951FDE
:1003D000029759F4808191818731910519F46F5FFB
:1003E0007F4F03C00B9709F411962F5F3F4F36964E
:1003F0002330310551F74F5F5F4F4330510541F0D6
:10040000FA01EE0FFF1FEC0FFD1F20E030E0DDCF03
:100410006330710521F1139711F140E050E020E0C5
:1004200030E080E090E0FE01E80FF91F0190F081DC
:10043000E02DE731F10519F42F5F3F4F04C03B97E2
:1004400011F44F5F5F4F08968831910561F72330B3
:10045000310529F020E030E04330510511F421E06E
:1004600030E0C901DF91CF9108959B01452B31F018
:100470004230510519F020E030E00DC0672B49F003
:1004800080E090E02230310511F481E090E09C01A1
:1004900002C021E030E0C9010895AF92BF92CF922F
:1004A000DF92EF92FF920F931F93CF93DF935C0144
:1004B0006A018B01EE24FF24C0E0D0E010C0F801F7
:1004C0004081518162817381C5010E943502892B6F
:1004D00019F00894E11CF11C21960C5F1F4FCC15FC
:1004E000DD056CF320E030E0F2E0EF16F10411F4EA
:1004F00021E030E0C901DF91CF911F910F91FF9072
:10050000EF90DF90CF90BF90AF9008952F923F92E1
:100510004F925F926F927F928F929F92AF92BF9213
:10052000CF92DF92EF92FF920F931F93DF93CF93BF
:10053000CDB7DEB7AC970FB6F894DEBF0FBECDBF18
:100540009AA789A79EA38DA3AA24BB24222433247F
:1005500088249924CC24DD246624772418A61FA29D
:100560007DC0FA01808191818731910529F411962E
:100570000894A11CB11C26C08B309105F9F46F5F63
:100580007F4F0894A11CB11CF101EE0FFF1FEE0F6D
:10059000FF1F81E090E08C0F9D1FE80FF91F338350
:1005A0002283F101EE0FFF1FEE0FFF1FE80FF91F6F
:1005B000918280820894211C311C04C0C69711F4DA
:1005C000890174012F5F3F4F4E5F5F4F233031052C
:1005D00041F6A230B10521F46115710509F48BC112
:1005E0006230710521F4AB2B09F4A0C11CC0611568
:1005F000710561F41197B9F4C114D104A1F40BA7EA
:100600001CA7270141E0642E712C1AC061307105CE
:1006100051F4AB2B41F4CD2809F08BC16114710466
:1006200009F48BC103C0C114D10461F461147104D5
:1006300039F4EFA1F8A5EF2B19F40BA71CA727019C
:10064000CC24DD240894811C911C8DA19EA10696CA
:100650009EA38DA393E08916910449F04DA15EA15C
:1006600020E030E060E070E0A0E0B0E07ACFE1E0D0
:10067000AE16B10451F4E9A5FAA580859185C69717
:10068000B9F431E0E32EF12C10C0F3E0AF16B10461
:1006900079F489A59AA5BE016F5F7F4FA1010E94E1
:1006A0004D02892B29F0EE24FF2401E010E023C144
:1006B000A0E0B0E05DC0808191818731910519F49F
:1006C0006F5F7F4F0AC08B30910519F42F5F3F4F4A
:1006D00004C0C69711F48D017A014F5F5F4F3696C3
:1006E0004330510541F76230710521F42115310580
:1006F00009F401C12230310521F4672B09F425C129
:100700001DC02115310569F461307105B9F4C114BA
:10071000D104A1F40BA71CA7270121E0622E712CA4
:100720001AC02130310551F4672B41F4CD2809F06E
:100730000FC16114710409F40FC103C0C114D104C5
:1007400061F46114710439F48FA198A5892B19F40F
:100750000BA71CA72701CC24DD241196A330B105DB
:1007600039F460E070E0A0E0B0E040E050E02FC07D
:10077000FD01EE0FFF1F89A59AA5E80FF91F40E0C4
:1007800050E020E030E060E070E095CFC901840FD8
:10079000951F029789F4808191818731910511F429
:1007A00011960AC08B30910519F46F5F7F4F04C01A
:1007B000C69711F48A0179012F5F3F4F3696233097
:1007C000310521F74F5F5F4F4330510551F0FA017A
:1007D000EE0FFF1F89A59AA5E80FF91F20E030E072
:1007E000D5CFA230B10521F46115710509F483C09C
:1007F0006230710521F4AB2B09F4B6C01CC0611541
:10080000710561F41197B9F4C114D104A1F40BA7D7
:100810001CA7270151E0652E712C1AC061307105AB
:1008200051F4AB2B41F4CD2809F0A1C0611471043F
:1008300009F4A1C003C0C114D10461F461147104AE
:1008400039F4EFA1F8A5EF2B19F40BA71CA727018A
:10085000CC24DD24E9A5FAA520E030E040E050E01A
:1008600060E070E0808191818731910519F46F5FBC
:100870007F4F0AC08B30910519F44F5F5F4F04C062
:10088000C69711F4890179012F5F3F4F38962330C5
:10089000310541F76230710519F44115510559F1DF
:1008A0004230510519F4672BF1F015C0411551057F
:1008B00039F46130710579F4C114D10461F413C0C5
:1008C0004130510541F4672B31F4CD2879F461149E
:1008D000710449F002C0CD2849F4672839F48FA18A
:1008E00098A5892B19F40BA71CA7270172012BA52A
:1008F0003CA5C9018C01B701C801AC960FB6F894AC
:10090000DEBF0FBECDBFCF91DF911F910F91FF9042
:10091000EF90DF90CF90BF90AF909F908F907F909F
:100920006F905F904F903F902F9008950BA71CA75A
:10093000270141E0C42ED12C85CE0BA71CA727018F
:10094000E1E0F0E0F8A7EFA37BCE0BA71CA72701FF
:1009500031E0C32ED12C01CF0BA71CA7270181E0CA
:1009600090E098A78FA3F7CE0BA71CA7270121E043
:10097000C22ED12C6FCF0BA71CA72701E1E0F0E01E
:10098000F8A7EFA365CFAF92BF92CF92DF92EF921D
:10099000FF920F931F93DF93CF93CDB7DEB762978C
:1009A0000FB6F894DEBF0FBECDBFFE01319686E3D1
:1009B00090E09E012D5E3F4F9183808393838283DD
:1009C000958384833696E217F307B1F77E01089486
:1009D000E11CF11C01E010E0ABE0AA2EB12CF7E124
:1009E000CF2ED12C0E948C00AC01DB01AA0FBB1FC3
:1009F000A60FB71FFD01EE0FFF1FEE0DFF1D880FA5
:100A0000991FE80FF91F80819181C69759F7A40FAC
:100A1000B51FFD01EE0FFF1FE55EFE4FE081A35DF8
:100A2000BE4FAC91A23671F0A336B1F0A136E9F415
:100A300022B1C80102C0880F991FEA95E2F7282B5E
:100A400022B913C025B1C80102C0880F991FEA95C9
:100A5000E2F7282B25B909C028B1C80102C0880FC8
:100A6000991FEA95E2F7282B28B9FB01EE0FFF1F2B
:100A7000E60FF71FE40FF51FEE0FFF1FEE0DFF1D32
:100A8000B182A082C7010E948101892B09F056C062
:100A90000E948C00AC01DB01AA0FBB1FA60FB71F81
:100AA000FD01EE0FFF1FEE0DFF1D880F991FE80FD0
:100AB000F91F80819181C69759F7A40FB51FFD01D9
:100AC000EE0FFF1FE050FF4FE081AE5EBE4FAC91D6
:100AD000A23671F0A336B1F0A136E9F422B1C80113
:100AE00002C0880F991FEA95E2F7282B22B913C09C
:100AF00025B1C80102C0880F991FEA95E2F7282B9B
:100B000025B909C028B1C80102C0880F991FEA950C
:100B1000E2F7282B28B9FB01EE0FFF1FE60FF71FA6
:100B2000E40FF51FEE0FFF1FEE0DFF1DD182C082F7
:100B3000C7010E948101892B09F454CF62960FB638
:100B4000F894DEBF0FBECDBFCF91DF911F910F9103
:100B5000FF90EF90DF90CF90BF90AF9008958F926D
:100B60009F92AF92BF92CF92DF92EF92FF920F933C
:100B70001F93DF93CF93CDB7DEB762970FB6F8948C
:100B8000DEBF0FBECDBFFE01319686E390E09E0131
:100B90002D5E3F4F918380839383828395838483EB
:100BA0003696E217F307B1F77E010894E11CF11CB9
:100BB00001E010E0BBE08B2E912CA0E9AA2EA1E071
:100BC000BA2EF7E1CF2ED12C0E948C00AC01DB01B4
:100BD000AA0FBB1FA60FB71FFD01EE0FFF1FEE0DE3
:100BE000FF1D880F991FE80FF91F80819181C6971B
:100BF00059F7A40FB51FFD01EE0FFF1FE55EFE4F75
:100C0000E081A35DBE4FAC91A23671F0A336B1F086
:100C1000A136E9F422B1C80102C0880F991FEA95F4
:100C2000E2F7282B22B913C025B1C80102C0880FF2
:100C3000991FEA95E2F7282B25B909C028B1C80108
:100C400002C0880F991FEA95E2F7282B28B9FB010B
:100C5000EE0FFF1FE60FF71FE40FF51FEE0FFF1F4C
:100C6000EE0DFF1D91828082C7010E948101892BB8
:100C700009F051C088E591E1F5013197F1F701974D
:100C8000D9F7C7010E948602AC01DB01AA0FBB1F86
:100C9000A60FB71FA80FB91FFD01EE0FFF1FE050F1
:100CA000FF4FE081AE5EBE4FAC91A23671F0A3362D
:100CB000B1F0A136E9F422B1C80102C0880F991F32
:100CC000EA95E2F7282B22B913C025B1C80102C06A
:100CD000880F991FEA95E2F7282B25B909C028B19A
:100CE000C80102C0880F991FEA95E2F7282B28B99E
:100CF000FB01EE0FFF1FE60FF71FE40FF51FEE0FCE
:100D0000FF1FEE0DFF1DD182C082C7010E9481012D
:100D1000892B09F459CF62960FB6F894DEBF0FBE47
:100D2000CDBFCF91DF911F910F91FF90EF90DF909A
:100D3000CF90BF90AF909F908F9008950F931F9387
:100D4000CF93DF930E9455000E948C008B01EC0131
:100D5000892B39F48BE090E00E94CA000E94C30402
:100D600048C08230910539F48CE090E00E94CA00BE
:100D70000E94AF053EC08BE090E00E94CA008CE06C
:100D800090E00E94CA00D801AA0FBB1FA00FB11F9C
:100D9000AC0FBD1FFD01EE0FFF1FE55EFE4FE081B2
:100DA000A35DBE4FAC91A23679F0A336C1F0A13657
:100DB00001F522B181E090E002C0880F991FEA9509
:100DC000E2F7282B22B915C025B181E090E002C0DE
:100DD000880F991FEA95E2F7282B25B90AC028B198
:100DE00081E090E002C0880F991FEA95E2F7282B76
:100DF00028B9DF91CF911F910F9108950E949E060F
:0A0E000080E090E00895F894FFCF21
:100E0A0004000600070002000000020000000200C1
:100E1A000400636361626263616161050007000641
:100E2A000001000100030001000300050063636183
:100E3A00626363616161030001000600040004004B
:100E4A000500000000000700626464626464646371
:020E5A00640032
:0400000300000D3CB0
:00000001FF
