:100000000C943E000C9453000C9453000C94530039
:100010000C9453000C9453000C9453000C94530014
:100020000C9453000C9453000C9453000C94530004
:100030000C9453000C9453000C9453000C945300F4
:100040000C9453000C9453000C9453000C945300E4
:100050000C9453000C9453000C9453000C945300D4
:100060000C9453000C9453000C9453000C945300C4
:100070000C9453000C9453000C94530011241FBE95
:10008000CFEFD8E0DEBFCDBF11E0A0E0B1E0EAE7FE
:10009000F3E002C005900D92A235B107D9F70E9496
:1000A000B6010C94BB010C940000509851983898FC
:1000B000549855985698579823982498589A599A2E
:1000C000409A5C9A5D9A5E9A5F9A2B9A2C9A399A1A
:1000D0003A9A3B9A3C9A3D9A3E9A3F9A089A099AD4
:1000E0000A9A0B9A0C9A0D9A0E9A0F9A209A219AB4
:1000F000229A419842984398449845984698479840
:100100001098119812981398149815981698179893
:10011000289829982A9808951F9324C010818C91BB
:10012000833631F0843631F0823669F483B103C00E
:1001300086B101C089B190E002C0959587951A9566
:10014000E2F780FF23C02F5F3F4F11963296233096
:10015000310521F7AB014F5F5F4F4330510514F478
:10016000BA0104C060E070E040E050E0CB01880FCD
:10017000991F860F971FDC01A85BBE4FFC01EE0F95
:10018000FF1FEA5CFE4F20E030E0C8CFBA01C90192
:100190001F9108956F927F928F929F92AF92BF921C
:1001A000CF92DF92EF92FF920F931F93CF93DF9343
:1001B0004C0140E050E0A1E0AA2EB12CF0E96F2EF6
:1001C000F1E07F2E51C08CE08816910429F4F701EC
:1001D000C080F801D08006C0FBE08F16910411F4B6
:1001E000C880DC9082E6C81689F0E3E6CE16C9F036
:1001F000F1E6CF1601F522B1C5010D2C02C0880F22
:10020000991F0A94E2F7282B22B915C025B1C50120
:100210000D2C02C0880F991F0A94E2F7282B25B9EC
:100220000AC028B1C5010D2C02C0880F991F0A947D
:10023000E2F7282B28B988EE93E0F3013197F1F724
:100240000197D9F76F5F7F4F0894E11CF11C0E5F97
:100250001F4F219612966330710509F0B4CF4F5F9E
:100260005F4F43305105D1F0CA01880F991F840FA9
:10027000951F7DE2E72E71E0F72EE80EF91E9C0136
:10028000220F331F8901055E1E4FEC01CE5EDE4F4B
:10029000D901A050BF4F60E070E095CF88E893E1AE
:1002A00020E931E0F9013197F1F70197D9F70E9480
:1002B0005500DF91CF911F910F91FF90EF90DF904C
:1002C000CF90BF90AF909F908F907F906F90089548
:1002D000CF93DF930E9455008BE090E00E94CA000C
:1002E0000E948C00892B19F48BE090E005C08230CD
:1002F000910521F48CE090E00E94CA00C1E0D0E0BA
:100300000E948C00DB01AA0FBB1FA60FB71FA80F0E
:10031000B91FFD01EE0FFF1FE050FF4FE081AE5E01
:10032000BE4FAC91A23671F0A336B1F0A13641F7C1
:1003300022B1CE0102C0880F991FEA95E2F7282B5F
:1003400022B9DECF25B1CE0102C0880F991FEA95F0
:10035000E2F7282B25B9D4CF28B1CE0102C0880FEF
:10036000991FEA95E2F7282B28B9CACF0E946801A5
:0A03700080E090E00895F894FFCFBC
:10037A00040006000700020000000200000002005C
:10038A0004006363616262636161610500070006DC
:10039A00000100010003000100030005006363611E
:1003AA0062636361616103000100060004000400E6
:1003BA00050000000000070062646462646464630C
:0203CA006400CD
:04000003000002D027
:00000001FF
