:100000000C943E000C9453000C9453000C94530039
:100010000C9453000C9453000C9453000C94530014
:100020000C9453000C9453000C9453000C94530004
:100030000C9453000C9453000C9453000C945300F4
:100040000C9453000C9453000C9453000C945300E4
:100050000C9453000C9453000C9453000C945300D4
:100060000C9453000C9453000C9453000C945300C4
:100070000C9453000C9453000C94530011241FBE95
:10008000CFEFD8E0DEBFCDBF11E0A0E0B1E0ECE102
:10009000FDE002C005900D92A235B107D9F70E948C
:1000A00087060C948C060C94000050985198389850
:1000B000549855985698579823982498589A599A2E
:1000C000409A5C9A5D9A5E9A5F9A2B9A2C9A399A1A
:1000D0003A9A3B9A3C9A3D9A3E9A3F9A089A099AD4
:1000E0000A9A0B9A0C9A0D9A0E9A0F9A209A219AB4
:1000F000229A419842984398449845984698479840
:100100001098119812981398149815981698179893
:10011000289829982A9808951F9324C010818C91BB
:10012000833631F0843631F0823669F483B103C00E
:1001300086B101C089B190E002C0959587951A9566
:10014000E2F780FF23C02F5F3F4F11963296233096
:10015000310521F7AB014F5F5F4F4330510514F478
:10016000BA0104C060E070E040E050E0CB01880FCD
:10017000991F860F971FDC01A85BBE4FFC01EE0F95
:10018000FF1FEA5CFE4F20E030E0C8CFBA01C90192
:100190001F9108956F927F928F929F92AF92BF921C
:1001A000CF92DF92EF92FF920F931F93CF93DF9343
:1001B0004C0140E050E0A1E0AA2EB12CF0E96F2EF6
:1001C000F1E07F2E51C08CE08816910429F4F701EC
:1001D000C080F801D08006C0FBE08F16910411F4B6
:1001E000C880DC9082E6C81689F0E3E6CE16C9F036
:1001F000F1E6CF1601F522B1C5010D2C02C0880F22
:10020000991F0A94E2F7282B22B915C025B1C50120
:100210000D2C02C0880F991F0A94E2F7282B25B9EC
:100220000AC028B1C5010D2C02C0880F991F0A947D
:10023000E2F7282B28B988EE93E0F3013197F1F724
:100240000197D9F76F5F7F4F0894E11CF11C0E5F97
:100250001F4F219612966330710509F0B4CF4F5F9E
:100260005F4F43305105D1F0CA01880F991F840FA9
:10027000951F7DE2E72E71E0F72EE80EF91E9C0136
:10028000220F331F8901055E1E4FEC01CE5EDE4F4B
:10029000D901A050BF4F60E070E095CF88E893E1AE
:1002A00020E931E0F9013197F1F70197D9F70E9480
:1002B0005500DF91CF911F910F91FF90EF90DF904C
:1002C000CF90BF90AF909F908F907F906F90089548
:1002D000A0E0B0E09A01FA01EE0FFF1FE20FF31F5A
:1002E000EE0FFF1FE80FF91FCB01880F991FE80FD2
:1002F000F91F80819181C69711F4A1E0B0E0CD0192
:100300000895CF93DF93EC01DC0160E070E025C03D
:10031000FD01E80FF91F0190F081E02DE731F105B3
:1003200019F42F5F3F4F04C03B9711F44F5F5F4FAD
:1003300002968630910561F72330310509F48FC0AC
:100340004330510509F48BC06F5F7F4F16966330C1
:10035000710519F4A0E0B0E02CC040E050E020E0CE
:1003600030E080E090E0D4CF8081918187319105A9
:1003700019F42F5F3F4F04C00B9711F46F5F7F4F4D
:100380004F5F5F4F36964330510571F7233031058B
:1003900009F465C06330710509F461C01196A3309A
:1003A000B10539F4A0E0B0E060E070E040E050E07A
:1003B00027C0FD01EE0FFF1FEC0FFD1F40E050E0D6
:1003C00060E070E020E030E0CFCFC901840F951FDE
:1003D000029759F4808191818731910519F46F5FFB
:1003E0007F4F03C00B9709F411962F5F3F4F36964E
:1003F0002330310551F74F5F5F4F4330510541F0D6
:10040000FA01EE0FFF1FEC0FFD1F20E030E0DDCF03
:100410006330710521F1139711F140E050E020E0C5
:1004200030E080E090E0FE01E80FF91F0190F081DC
:10043000E02DE731F10519F42F5F3F4F04C03B97E2
:1004400011F44F5F5F4F08968831910561F72330B3
:10045000310529F020E030E04330510511F421E06E
:1004600030E0C901DF91CF9108952F923F924F92D2
:100470005F926F927F928F929F92AF92BF92CF9234
:10048000DF92EF92FF920F931F93DF93CF9300D0F1
:1004900000D000D0CDB7DEB79A8389832C01EE243B
:1004A000FF24882499241C821B82CC24DD2422244E
:1004B000332464C0F801808191818731910511F462
:1004C000119605C08B30910531F46F5F7F4F089412
:1004D000E11CF11C05C0C69719F42D813E81A401D1
:1004E0008D819E8101969E838D830E5F1F4F0397A2
:1004F00009F7A230B10521F46115710509F489C12C
:100500006230710521F4AB2B09F49EC11EC0611548
:10051000710561F41197C9F4AB81BC81AB2BA9F4CF
:1005200039015A0101E0C02ED12C1BC06130710588
:1005300061F4AB2B51F4EB81FC81EF2B09F086C108
:10054000C114D10409F487C104C0AB81BC81AB2BB9
:1005500051F4C114D10429F42114310411F43901E6
:100560005A011C821B820894811C911CE6E0F0E079
:100570004E0E5F1EF3E08F16910441F082011E8241
:100580001D8260E070E0A0E0B0E094CF81E0E8166A
:10059000F10409F06EC0A981BA8118968D919C91E1
:1005A0001997C69709F065C041E050E021E030E0BE
:1005B00030C1808191818731910519F40F5F1F4F00
:1005C0000AC08B30910519F46F5F7F4F04C0C69746
:1005D00011F49701AD0111963696A330B10549F794
:1005E0000230110521F46115710509F412C1623060
:1005F000710521F4012B09F434C11FC06115710587
:1006000069F401301105C9F4EB81FC81EF2BA9F4E9
:1006100039015A0111E0C12ED12C1BC06130710586
:1006200061F4012B51F48B819C81892B09F01BC152
:10063000C114D10409F41CC104C0EB81FC81EF2B6F
:1006400051F4C114D10429F42114310411F43901F5
:100650005A011C821B820894E11CF11CF3E0EF1686
:10066000F10449F400E010E0EE24FF24E0E0F0E0C3
:1006700036C0EE24FF24F701EE0FFF1F89819A8117
:10068000E80FF91FA0E0B0E060E070E000E010E0EB
:1006900090CFCB018E0F9F1F0297A1F4D4018D91B3
:1006A0009C918731910521F40894E11CF11C0AC04A
:1006B0008B30910519F40F5F1F4F04C0C69711F4DA
:1006C0009F01AB016F5F7F4F86E090E0880E991E1F
:1006D00063307105F1F63196E330F10551F04F01C9
:1006E000880C991CA981BA818A0E9B1E60E070E07B
:1006F000D0CFB2E0EB16F10421F40115110509F495
:1007000088C00230110521F4EF2809F4B7C020C0D9
:100710000115110571F4E1E0EE16F104C9F48B81C5
:100720009C81892BA9F439015A01F1E0CF2ED12CFB
:100730001BC00130110561F4EF2851F4AB81BC817D
:10074000AB2B09F09DC0C114D10409F49EC004C0B4
:100750008B819C81892B51F4C114D10429F421147B
:10076000310411F439015A011C821B8209811A815A
:1007700060E070E0EE24FF24A0E0B0E0F8018081AA
:1007800091818731910511F411960BC08B30910541
:1007900021F40894E11CF11C04C0C69711F49B01DC
:1007A000AB016F5F7F4F085F1F4F6330710531F7FB
:1007B000A230B10519F4E114F10459F1F2E0EF1699
:1007C000F10419F4AB2B09F118C0E114F10439F468
:1007D000119799F48B819C81892B79F416C091E053
:1007E000E916F10451F4AB2B41F4AB81BC81AB2B86
:1007F00071F4C114D10449F004C0EB81FC81EF2BEA
:1008000031F4CD2821F4232811F439015A01A5012E
:100810009301BA01C90126960FB6F894DEBF0FBE48
:10082000CDBFCF91DF911F910F91FF90EF90DF909F
:10083000CF90BF90AF909F908F907F906F905F9080
:100840004F903F902F90089539015A0181E090E038
:100850009C838B8388CE39015A01E1E02E2E312C06
:1008600080CE39015A01A1E0B0E0BC83AB83F3CE66
:1008700039015A0171E0272E312CEBCE39015A0192
:10088000E1E0F0E0FC83EB8371CF39015A0161E0D4
:10089000262E312C69CFAF92BF92CF92DF92EF928A
:1008A000FF920F931F93DF93CF93CDB7DEB762977D
:1008B0000FB6F894DEBF0FBECDBFFE01319686E3C2
:1008C00090E09E012D5E3F4F9183808393838283CE
:1008D000958384833696E217F307B1F77E01089477
:1008E000E11CF11C01E010E0ABE0AA2EB12CF7E115
:1008F000CF2ED12C0E948C00AC01DB01AA0FBB1FB4
:10090000A60FB71FFD01EE0FFF1FEE0DFF1D880F95
:10091000991FE80FF91F80819181C69759F7A40F9D
:10092000B51FFD01EE0FFF1FE55EFE4FE081A35DE9
:10093000BE4FAC91A23671F0A336B1F0A136E9F406
:1009400022B1C80102C0880F991FEA95E2F7282B4F
:1009500022B913C025B1C80102C0880F991FEA95BA
:10096000E2F7282B25B909C028B1C80102C0880FB9
:10097000991FEA95E2F7282B28B9FB01EE0FFF1F1C
:10098000E60FF71FE40FF51FEE0FFF1FEE0DFF1D23
:10099000B182A082C7010E948101892B09F057C052
:1009A0000E948C00AC01DB01AA0FBB1FA60FB71F72
:1009B000FD01EE0FFF1FEE0DFF1DCA01880F991FED
:1009C000E80FF91F80819181C69751F7A40FB51FD9
:1009D000FD01EE0FFF1FE050FF4FE081AE5EBE4F06
:1009E000AC91A23671F0A336B1F0A136E9F422B190
:1009F000C80102C0880F991FEA95E2F7282B22B997
:100A000013C025B1C80102C0880F991FEA95E2F70B
:100A1000282B25B909C028B1C80102C0880F991F29
:100A2000EA95E2F7282B28B9FB01EE0FFF1FE60F2E
:100A3000F71FE40FF51FEE0FFF1FEE0DFF1DD18214
:100A4000C082C7010E948101892B09F453CF6296AD
:100A50000FB6F894DEBF0FBECDBFCF91DF911F91CF
:100A60000F91FF90EF90DF90CF90BF90AF900895DF
:100A70008F929F92AF92BF92CF92DF92EF92FF92AE
:100A80000F931F93DF93CF93CDB7DEB762970FB667
:100A9000F894DEBF0FBECDBFFE01319686E390E035
:100AA0009E012D5E3F4F9183808393838283958344
:100AB00084833696E217F307B1F77E010894E11CB0
:100AC000F11C01E010E0BBE08B2E912CA0E9AA2ED6
:100AD000A1E0BA2EF7E1CF2ED12C0E948C00AC0100
:100AE000DB01AA0FBB1FA60FB71FFD01EE0FFF1FF3
:100AF000EE0DFF1D880F991FE80FF91F808191816E
:100B0000C69759F7A40FB51FFD01EE0FFF1FE55E55
:100B1000FE4FE081A35DBE4FAC91A23671F0A336CB
:100B2000B1F0A136E9F422B1C80102C0880F991FC3
:100B3000EA95E2F7282B22B913C025B1C80102C0FB
:100B4000880F991FEA95E2F7282B25B909C028B12B
:100B5000C80102C0880F991FEA95E2F7282B28B92F
:100B6000FB01EE0FFF1FE60FF71FE40FF51FEE0F5F
:100B7000FF1FEE0DFF1D91828082C7010E9481013F
:100B8000892B09F051C088E591E1F5013197F1F722
:100B90000197D9F7C7010E943502AC01DB01AA0F0A
:100BA000BB1FA60FB71FA80FB91FFD01EE0FFF1F38
:100BB000E050FF4FE081AE5EBE4FAC91A23671F0C7
:100BC000A336B1F0A136E9F422B1C80102C0880F02
:100BD000991FEA95E2F7282B22B913C025B1C80165
:100BE00002C0880F991FEA95E2F7282B25B909C0A2
:100BF00028B1C80102C0880F991FEA95E2F7282B97
:100C000028B9FB01EE0FFF1FE60FF71FE40FF51FDA
:100C1000EE0FFF1FEE0DFF1DD182C082C7010E94A3
:100C20008101892B09F459CF62960FB6F894DEBF83
:100C30000FBECDBFCF91DF911F910F91FF90EF902D
:100C4000DF90CF90BF90AF909F908F9008950F93BB
:100C50001F93CF93DF930E9455000E948C008B015D
:100C6000EC01892B39F48BE090E00E94CA000E94CD
:100C70004B0448C08230910539F48CE090E00E942A
:100C8000CA000E9438053EC08BE090E00E94CA0076
:100C90008CE090E00E94CA00D801AA0FBB1FA00FF1
:100CA000B11FAC0FBD1FFD01EE0FFF1FE55EFE4F34
:100CB000E081A35DBE4FAC91A23679F0A336C1F0BE
:100CC000A13601F522B181E090E002C0880F991FA2
:100CD000EA95E2F7282B22B915C025B181E090E012
:100CE00002C0880F991FEA95E2F7282B25B90AC0A0
:100CF00028B181E090E002C0880F991FEA95E2F7E1
:100D0000282B28B9DF91CF911F910F9108950E9450
:0C0D1000270680E090E00895F894FFCFE3
:100D1C0004000600070002000000020000000200B0
:100D2C000400636361626263616161050007000630
:100D3C000001000100030001000300050063636172
:100D4C00626363616161030001000600040004003A
:100D5C000500000000000700626464626464646360
:020D6C00640021
:0400000300000C4E9F
:00000001FF
